:020000020000FC
:100000000C948E000C9406000C945500A0FF1895DB
:10001000A1FD18954F934FB74F934F914FBF4F91FD
:100020004FE040930B01CAD3C9D3C8D321E0320FAC
:100030002FEF2317C1F740EF40930B01BFD3BED37F
:10004000BDD321E0320F2FEF2317C1F74FEF4093BD
:100050000B01B4D3B3D3B2D321E0320F2FEF231768
:10006000C1F740E040930B0100EC87D396D303E740
:100070008BD393D304E788D390D301E685D38DD374
:1000800004E782D38AD305E77FD387D303E77CD302
:1000900084D30AE379D381D302E476D37ED305E413
:1000A00073D37BD342E0A42B1895A0FF1895A1FF32
:1000B00018954F934FB74F934F914FBF4F9100EC0F
:1000C0005CD36BD3A5FF02E058D367D303E55CD3C1
:1000D00064D304E559D361D300E256D35ED300E282
:1000E00053D35BD300E250D358D300E24DD355D362
:1000F00000E24AD352D300E247D34FD300E244D3C5
:100100004CD300E241D349D3A5FF0EE43DD345D300
:1001100006E43AD342D300E1A02BD8C10DB100616F
:100120000DB9002700939B0000E000939A0001E0C6
:100130000093910001E2009390004FEF40930A0179
:100140004AE0409369004DB343604DBB7894A0E012
:1001500040EF47B90FEF0DBF01E20EBF0FEF00BB3D
:1001600001B9002701BB02B908E307D316D32FD387
:1001700008E303D312D322D308E3FFD20ED308E35C
:10018000FCD20BD308E0F9D208D301E0F6D205D3B4
:100190000EE0F3D202D30EE0F0D2FFD208E5F4D2A3
:1001A000FCD20AE3F1D2F9D2B0E0A0FD0FC13FEEDC
:1001B000112700C01430C9F338B94FEF4A95F1F751
:1001C00046B14F704F3059F021E08827843039F024
:1001D000042F022341F08395220F0C94E600330F85
:1001E00013950C94DA0046B14F704F3009F0FBCFF5
:1001F000133061F0833061F0482F440F480F410FF6
:100200004F5F00E3040FC0D2C8D21EC00C942C0173
:10021000103041F0113099F03FE33B17E8F031E046
:10022000A32B36C0CB2FB0E032E000ECA6D2B5D283
:1002300009E5AAD2B2D20AE3A7D2AFD2B6CF40E044
:1002400000E3040FA1D2A9D20AE0B09FB02DB40FF1
:100250003FE33B1708F0A9CF01E08FD29ED207E71A
:1002600093D29BD202E790D298D20FE68DD295D24C
:100270000EE68AD292D207E687D28FD230E09ED2A3
:100280009DD29CD221E0320F2FEF2317C1F746CF2A
:100290002C2E3B2EF7E0E8EE30E4B39F002D112D1D
:1002A0000C0F30E0131F8894E00FF31F8894F10FB8
:1002B000149101E062D271D208E266D26ED20AE0F5
:1002C00020E03C2FC01728F400E3030F5DD265D275
:1002D0000CC0301B23953017E0F700E3020F54D217
:1002E0005CD200E3030F50D258D20CE24DD255D26B
:1002F0000AE020E03B2FB01728F400E3030F44D2BC
:100300004CD20CC0301B23953017E0F700E3020FEE
:100310003BD243D200E3030F37D23FD20CE234D2B8
:100320003CD20AE020E0312F101780F400E3030FE5
:100330002BD233D209E228D230D230E8132B1083EB
:10034000149117FD00E220D228D213C0301B239550
:100350003017E0F700E3020F17D21FD200E3030FBC
:1003600013D21BD209E210D218D230E8132B10831B
:100370001491F7E0E8EE30E4B39F002D112D0C0F3F
:1003800030E0131F8894E00FF31F8894F10F14914D
:1003900000ECF3D102D203E7F7D1FFD104E7F4D1A7
:1003A000FCD101E6F1D1F9D104E7EED1F6D105E7B0
:1003B000EBD1F3D103E7E8D1F0D10AE3E5D1EDD1F8
:1003C00005E5E2D1EAD102E4DFD1E7D1A1FFFECF1A
:1003D00010E050E0F7E0E8EE649100ECCED1DDD122
:1003E00003E7D2D1DAD104E7CFD1D7D101E6CCD11E
:1003F000D4D104E7C9D1D1D105E7C6D1CED103E725
:10040000C3D1CBD10AE3C0D1C8D105E5BDD1C5D197
:1004100000E7BAD1C2D10FEF00939A000AE020E0C2
:10042000362F0AE0601708F405C0301B23953017FB
:10043000E0F740E000E8A1D1B0D108E2A5D1ADD10C
:1004400000E3A2D1AAD10CE29FD1A7D100E39CD1B5
:10045000A4D109E299D1A1D100E296D19ED14395D0
:10046000339500E0201F889400E3020F8DD195D1D1
:1004700000E3030F89D191D100E0AFD105E040172F
:10048000C9F600EC7AD189D103E77ED186D104E7A1
:100490007BD183D101E678D180D104E775D17DD1BC
:1004A00005E772D17AD103E76FD177D10AE36CD136
:1004B00074D103E569D171D105E466D16ED100E450
:1004C000A02B70E0F7E0E8EE10E050E000E076D11D
:1004D00031E0030F34E63017D1F7312F00E84DD16A
:1004E0005CD108E251D159D1312FE9D0132F0CE260
:1004F0004BD153D1352FE3D0532F09E245D14DD104
:1005000000E242D14AD1649105E0600F362FD7D086
:1005100000E23AD142D1632FA5FD4DC0A4FD4BC0EE
:10052000211609F09AC0351609F097C0BFE1B093C3
:100530009A00462E00EC21D130D103E725D12DD1F0
:1005400004E722D12AD101E61FD127D104E71CD12B
:1005500024D105E719D121D103E716D11ED10AE331
:1005600013D11BD106E410D118D10FE40DD115D150
:100570004FEF40930B0100E030D140E040930B017E
:1005800000E02BD14FEF40930B0100E026D140E07B
:1005900040930B0122D14FEF40930B0100E01DD19E
:1005A00040E040930B0100E018D100E2A02BBFEF28
:1005B000B0939A008BCFA6FD46C00FE3101739F019
:1005C000139501E0E00F00E0F01F88947FCF1FE358
:1005D0005A9500E4E01B00E0F00B889400E4A02BA7
:1005E00075CF00E0501741F05A9500E4E01B00E0A1
:1005F000F00B8894AF7B6ACFA5FF7FC0DFD031E0DE
:10060000030F34E63017D1F7312F00E8B6D0C5D04C
:1006100008E2BAD0C2D0322D52D00CE2B5D0BDD053
:10062000332D4DD00CE2B0D0B8D0342D05E0301BC6
:1006300046D009E2A9D0B1D000E2A6D0AED040E0C9
:1006400040939A00FCCF00E0101759F21A9501E090
:10065000E01B00E0F00B889439CFA6FD18C000E045
:10066000101739F01A9501E0E01B00E0F00B8894B8
:100670002DCF10E0539500E4E00F00E0F01F8894C8
:1006800070E000E4A02B00E27FD087D01FCF0FE303
:10069000101751F0139501E0E00F00E0F01F88946F
:1006A00000E272D07AD012CF00E4E00F00E0F01F39
:1006B00088945395AF7B00E267D06FD007CF20E0DE
:1006C0000AE0301728F400E3030F5ED066D00895E7
:1006D000301B23953017E0F700E3020F55D05DD0B3
:1006E00000E3030F51D059D00AE0209F202D320F94
:1006F000089540E040939A00FCCF00EC3ED04DD0EE
:1007000003E742D04AD004E73FD047D001E63CD0CF
:1007100044D004E739D041D005E736D03ED003E7D6
:1007200033D03BD00AE330D038D005E52DD035D0DA
:1007300006E42AD032D000E820D02FD008E224D01E
:100740002CD000E321D029D00CE21ED026D000E32B
:100750001BD023D00CE218D020D000E315D01DD040
:1007600009E212D01AD001E40FD017D002E60CD063
:1007700014D000E209D011D0BCCF01BB1FD0169A13
:100780001DD016981BD0089501BB179A17D0169A42
:1007900015D0169813D0179808950F93002700BB13
:1007A00001BB159A0BD0169A09D00FB1169807FD08
:1007B000F9CF15980FEF00BB0F9108958F939F937A
:1007C0009FE08CE90197F1F79F918F910895F6DFF3
:1007D000F5DFF4DFF3DFF2DF0895F0DF81E0080FEB
:1007E00084E68017D1F718950A0A0A0A0A0A0A0A43
:1007F0000A0A0A0A0A0A0A0A0A0A0A0A0A0A0A0A59
:100800000A0A0A0A0A0A0A0A1414141414141414F8
:1008100014141414141414140A0A0A0A0A0A0A0AE8
:100820000A0A0A0A0A0A0A0A0A0F0F0F0F0F0F0F05
:100830000F0F0F0F0F0F0F0A0A0A0A0A0A0A0A0AF5
:100840000A0A0A0A0A0A0A0A1414141414141414B8
:1008500014141414141414140A0F0F0F0F0F0F0F85
:100860000F0F0F0F0F0F0F0A0A0F14141414141484
:100870001414141414140F0A0A0A0A0A0A0A0A0A97
:100880000A0A0A0A0A0A0A0A141414141414141478
:1008900014141414141414140A0F14141414141427
:1008A0001414141414140F0A0A0F1419191919190D
:1008B0001919191919140F0A0A0A0A0A0A0A0A0A3E
:1008C0000A0A0A0A0A0A0A0A141414141414141438
:1008D00014141414141414140A0F141919191919CE
:1008E0001919191919140F0A0A0F14191E1E1E1EA0
:1008F0001E1E1E1E19140F0A0A0A0A0A0A0A0A0AEA
:100900000A0A0A0A0A0A0A0A1414141414141414F7
:1009100014141414141414140A0F14191E1E1E1E79
:100920001E1E1E1E19140F0A0A0F14191E2323233C
:100930002323231E19140F0A0A0A0A0A0A0A0A0A9A
:100940000A0A0A0A0A0A0A0A1414141414141414B7
:1009500014141414141414140A0F14191E2323232A
:100960002323231E19140F0A0A0F14191E232828E3
:100970002828231E19140F0A0A0A0A0A0A0A0A0A50
:100980000A0A0A0A0A0A0A0A141414141414141477
:1009900014141414141414140A0F14191E232828E0
:1009A0002828231E19140F0A0A0F14191E23282D94
:1009B0002D28231E19140F0A0A0A0A0A0A0A0A0A0B
:1009C0000A0A0A0A0A0A0A0A141414141414141437
:1009D00014141414141414140A0F14191E23282D9B
:1009E0002D28231E19140F0A0A0F14191E23282D4F
:1009F0002D28231E19140F0A0A0A0A0A0A0A0A0ACB
:100A00000A0A0A0A0A0A0A0A1414141414141414F6
:100A100014141414141414140A0F14191E23282D5A
:100A20002D28231E19140F0A0A0F14191E23282813
:100A30002828231E19140F0A0A0A0A0A0A0A0A0A8F
:100A40000A0A0A0A0A0A0A0A1414141414141414B6
:100A500014141414141414140A0F14191E2328281F
:100A60002828231E19140F0A0A0F14191E232323E2
:100A70002323231E19140F0A0A0A0A0A0A0A0A0A59
:100A80000A0A0A0A0A0A0A0A141414141414141476
:100A900014141414141414140A0F14191E232323E9
:100AA0002323231E19140F0A0A0F14191E1E1E1EBB
:100AB0001E1E1E1E19140F0A0A0A0A0A0A0A0A0A28
:100AC0000A0A0A0A0A0A0A0A141414141414141436
:100AD00014141414141414140A0F14191E1E1E1EB8
:100AE0001E1E1E1E19140F0A0A0F1419191919199E
:100AF0001919191919140F0A0A0A0A0A0A0A0A0AFC
:100B00000A0A0A0A0A0A0A0A1414141414141414F5
:100B100014141414141414140A0F1419191919198B
:100B20001919191919140F0A0A0F1414141414148A
:100B30001414141414140F0A0A0A0A0A0A0A0A0AD4
:100B40000A0A0A0A0A0A0A0A1414141414141414B5
:100B500014141414141414140A0F14141414141464
:100B60001414141414140F0A0A0F0F0F0F0F0F0F81
:100B70000F0F0F0F0F0F0F0A0A0A0A0A0A0A0A0AB2
:100B80000A0A0A0A0A0A0A0A141414141414141475
:100B900014141414141414140A0F0F0F0F0F0F0F42
:100BA0000F0F0F0F0F0F0F0A0A0A0A0A0A0A0A0A82
:100BB0000A0A0A0A0A0A0A0A0A0A0A0A0A0A0A0A95
:100BC0000A0A0A0A0A0A0A0A141414141414141435
:100BD00014141414141414140A0A0A0A0A0A0A0A25
:100BE0000A0A0A0A0A0A0A0A0A0A0A0A0A0A0A0A65
:100BF00014141414141414141414141414141414B5
:100C000014141414141414141414141414141414A4
:100C10001414141414141414141414141414141494
:100C20000A0A0A0A0A0A0A0A0A0A0A0A0A0A0A0A24
:100C30001414141414141414141919191919191951
:100C4000191919191919191414191919191919191E
:100C50001919191919191914141414141414141431
:100C60000A0A0A0A0A0A0A0A0A0A0A0A0A0A0A0AE4
:100C7000141414141414141414191E1E1E1E1E1EF3
:100C80001E1E1E1E1E1E191414191E1E1E1E1E1EA2
:100C90001E1E1E1E1E1E19141414141414141414D3
:100CA0000A0A0A0A0A0A0A0A0A0A0A0A0A0A0A0AA4
:100CB000141414141414141414191E23232323239A
:100CC00023232323231E191414191E232323232330
:100CD00023232323231E191414141414141414147A
:100CE0000A0A0A0A0A0A0A0A0A0A0A0A0A0A0A0A64
:100CF000141414141414141414191E232828282846
:100D000028282828231E191414191E2328282828C7
:100D100028282828231E1914141414141414141425
:100D20000A0A0A0A0A0A0A0A0A0A0A0A0A0A0A0A23
:100D3000141414141414141414191E23282D2D2DF6
:100D40002D2D2D28231E191414191E23282D2D2D69
:100D50002D2D2D28231E19141414141414141414D6
:100D60000A0A0A0A0A0A0A0A0A0A0A0A0A0A0A0AE3
:100D7000141414141414141414191E23282D3232AC
:100D800032322D28231E191414191E23282D323215
:100D900032322D28231E191414141414141414148C
:100DA0000A0A0A0A0A0A0A0A0A0A0A0A0A0A0A0AA3
:100DB000141414141414141414191E23282D323767
:100DC00037322D28231E191414191E23282D3237CB
:100DD00037322D28231E1914141414141414141447
:100DE0000A0A0A0A0A0A0A0A0A0A0A0A0A0A0A0A63
:100DF000141414141414141414191E23282D323727
:100E000037322D28231E191414191E23282D32378A
:100E100037322D28231E1914141414141414141406
:100E20000A0A0A0A0A0A0A0A0A0A0A0A0A0A0A0A22
:100E3000141414141414141414191E23282D3232EB
:100E400032322D28231E191414191E23282D323254
:100E500032322D28231E19141414141414141414CB
:100E60000A0A0A0A0A0A0A0A0A0A0A0A0A0A0A0AE2
:100E7000141414141414141414191E23282D2D2DB5
:100E80002D2D2D28231E191414191E23282D2D2D28
:100E90002D2D2D28231E1914141414141414141495
:100EA0000A0A0A0A0A0A0A0A0A0A0A0A0A0A0A0AA2
:100EB000141414141414141414191E232828282884
:100EC00028282828231E191414191E232828282806
:100ED00028282828231E1914141414141414141464
:100EE0000A0A0A0A0A0A0A0A0A0A0A0A0A0A0A0A62
:100EF000141414141414141414191E232323232358
:100F000023232323231E191414191E2323232323ED
:100F100023232323231E1914141414141414141437
:100F20000A0A0A0A0A0A0A0A0A0A0A0A0A0A0A0A21
:100F3000141414141414141414191E1E1E1E1E1E30
:100F40001E1E1E1E1E1E191414191E1E1E1E1E1EDF
:100F50001E1E1E1E1E1E1914141414141414141410
:100F60000A0A0A0A0A0A0A0A0A0A0A0A0A0A0A0AE1
:100F7000141414141414141414191919191919190E
:100F800019191919191919141419191919191919DB
:100F900019191919191919141414141414141414EE
:100FA0000A0A0A0A0A0A0A0A0A0A0A0A0A0A0A0AA1
:100FB00014141414141414141414141414141414F1
:100FC00014141414141414141414141414141414E1
:100FD00014141414141414141414141414141414D1
:100FE0000A0A0A0A0A0A0A0A141414141414141411
:100FF0000A0A0A0A0A0A0A0A141414141414141401
:1010000014141414141414141414141414141414A0
:1010100014141414141414140A0A0A0A0A0A0A0AE0
:101020001414141414141414141414141414141480
:101030000A0A0A0A0A0A0A0A14191919191919199D
:10104000191919191919191414191919191919191A
:1010500019191919191919140A0A0A0A0A0A0A0A7D
:101060001414141414141414141414141414141440
:101070000A0A0A0A0A0A0A0A14191E1E1E1E1E1E3F
:101080001E1E1E1E1E1E191414191E1E1E1E1E1E9E
:101090001E1E1E1E1E1E19140A0A0A0A0A0A0A0A1F
:1010A0001414141414141414141414141414141400
:1010B0000A0A0A0A0A0A0A0A14191E2323232323E6
:1010C00023232323231E191414191E23232323232C
:1010D00023232323231E19140A0A0A0A0A0A0A0AC6
:1010E00014141414141414141414141414141414C0
:1010F0000A0A0A0A0A0A0A0A14191E232828282892
:1011000028282828231E191414191E2328282828C3
:1011100028282828231E19140A0A0A0A0A0A0A0A71
:10112000141414141414141414141414141414147F
:101130000A0A0A0A0A0A0A0A14191E23282D2D2D42
:101140002D2D2D28231E191414191E23282D2D2D65
:101150002D2D2D28231E19140A0A0A0A0A0A0A0A22
:10116000141414141414141414141414141414143F
:101170000A0A0A0A0A0A0A0A14191E23282D3232F8
:1011800032322D28231E191414191E23282D323211
:1011900032322D28231E19140A0A0A0A0A0A0A0AD8
:1011A00014141414141414141414141414141414FF
:1011B0000A0A0A0A0A0A0A0A14191E23282D3237B3
:1011C00037322D28231E191414191E23282D3237C7
:1011D00037322D28231E19140A0A0A0A0A0A0A0A93
:1011E00014141414141414141414141414141414BF
:1011F0000A0A0A0A0A0A0A0A14191E23282D323773
:1012000037322D28231E191414191E23282D323786
:1012100037322D28231E19140A0A0A0A0A0A0A0A52
:10122000141414141414141414141414141414147E
:101230000A0A0A0A0A0A0A0A14191E23282D323237
:1012400032322D28231E191414191E23282D323250
:1012500032322D28231E19140A0A0A0A0A0A0A0A17
:10126000141414141414141414141414141414143E
:101270000A0A0A0A0A0A0A0A14191E23282D2D2D01
:101280002D2D2D28231E191414191E23282D2D2D24
:101290002D2D2D28231E19140A0A0A0A0A0A0A0AE1
:1012A00014141414141414141414141414141414FE
:1012B0000A0A0A0A0A0A0A0A14191E2328282828D0
:1012C00028282828231E191414191E232828282802
:1012D00028282828231E19140A0A0A0A0A0A0A0AB0
:1012E00014141414141414141414141414141414BE
:1012F0000A0A0A0A0A0A0A0A14191E2323232323A4
:1013000023232323231E191414191E2323232323E9
:1013100023232323231E19140A0A0A0A0A0A0A0A83
:10132000141414141414141414141414141414147D
:101330000A0A0A0A0A0A0A0A14191E1E1E1E1E1E7C
:101340001E1E1E1E1E1E191414191E1E1E1E1E1EDB
:101350001E1E1E1E1E1E19140A0A0A0A0A0A0A0A5C
:10136000141414141414141414141414141414143D
:101370000A0A0A0A0A0A0A0A14191919191919195A
:1013800019191919191919141419191919191919D7
:1013900019191919191919140A0A0A0A0A0A0A0A3A
:1013A00014141414141414141414141414141414FD
:1013B0000A0A0A0A0A0A0A0A14141414141414143D
:1013C00014141414141414141414141414141414DD
:1013D00014141414141414140A0A0A0A0A0A0A0A1D
:1013E00014141414141414140A0A0A0A0A0A0A0A0D
:1013F0000F14191E23282D32322D28231E19140FE5
:101400000A0A0A0A0A0A0A0A0A0A0A0A0A0A0A0A3C
:101410000A0A0A0A0A0A0A0A0A0A0A0A0A0A0A0A2C
:101420000F14191E23282D320A0A0A0A0A0A0A0A68
:101430000F14191E23282D32322D28231E19140FA4
:101440000A0A0A0A0A0A0A0A0A0A0A0A0A0A0A0AFC
:101450000A0A0A0A0A0A0A0A0A0A0A0A0A0A0A0AEC
:101460000F14191E23282D320A0A0A0A0A0A0A0A28
:101470000F14191E23282D32322D28231E19140F64
:101480000A0A0A0A0A0A0A0A0A0A0A0A0A0A0A0ABC
:101490000A0A0A0A0A0A0A0A0A0A0A0A0A0A0A0AAC
:1014A0000F14191E23282D320A0A0A0A0A0A0A0AE8
:1014B0000F14191E23282D32322D28231E19140F24
:1014C0000A0A0A0A0A0A0A0A0A0A0A0A0A0A0A0A7C
:1014D0000A0A0A0A0A0A0A0A0A0A0A0A0A0A0A0A6C
:1014E0000F14191E23282D320A0A0A0A0A0A0A0AA8
:1014F0000F14191E23282D32322D28231E19140FE4
:101500000A0A0A0A0A0A0A0A0A0A0A0A0A0A0A0A3B
:101510000A0A0A0A0A0A0A0A0A0A0A0A0A0A0A0A2B
:101520000F14191E23282D320A0A0A0A0A0A0A0A67
:101530000F14191E23282D32322D28231E19140FA3
:101540000A0A0A0A0A0A0A0A0A0A0A0A0A0A0A0AFB
:101550000A0A0A0A0A0A0A0A0A0A0A0A0A0A0A0AEB
:101560000F14191E23282D320A0A0A0A0A0A0A0A27
:101570000F14191E23282D32322D28231E19140F63
:101580000A0A0A0A0A0A0A0A0A0A0A0A0A0A0A0ABB
:101590000A0A0A0A0A0A0A0A0A0A0A0A0A0A0A0AAB
:1015A0000F14191E23282D320A0A0A0A0A0A0A0AE7
:1015B0000F14191E23282D32322D28231E19140F23
:1015C0000A0A0A0A0A0A0A0A0A0A0A0A0A0A0A0A7B
:1015D0000A0A0A0A0A0A0A0A0A0A0A0A0A0A0A0A6B
:1015E0000F14191E23282D320A0A0A0A0A0A0A0AA7
:1015F0000F14191E23282D32322D28231E19140FE3
:101600000A0A0A0A0A0A0A0A0A0A0A0A0A0A0A0A3A
:101610000A0A0A0A0A0A0A0A0A0A0A0A0A0A0A0A2A
:101620000F14191E23282D320A0A0A0A0A0A0A0A66
:101630000F14191E23282D32322D28231E19140FA2
:101640000A0A0A0A0A0A0A0A0A0A0A0A0A0A0A0AFA
:101650000A0A0A0A0A0A0A0A0A0A0A0A0A0A0A0AEA
:101660000F14191E23282D320A0A0A0A0A0A0A0A26
:101670000F14191E23282D32322D28231E19140F62
:101680000A0A0A0A0A0A0A0A0A0A0A0A0A0A0A0ABA
:101690000A0A0A0A0A0A0A0A0A0A0A0A0A0A0A0AAA
:1016A0000F14191E23282D320A0A0A0A0A0A0A0AE6
:1016B0000F14191E23282D32322D28231E19140F22
:1016C0000A0A0A0A0A0A0A0A0A0A0A0A0A0A0A0A7A
:1016D0000A0A0A0A0A0A0A0A0A0A0A0A0A0A0A0A6A
:1016E0000F14191E23282D320A0A0A0A0A0A0A0AA6
:1016F0000F14191E23282D32322D28231E19140FE2
:101700000A0A0A0A0A0A0A0A0A0A0A0A0A0A0A0A39
:101710000A0A0A0A0A0A0A0A0A0A0A0A0A0A0A0A29
:101720000F14191E23282D320A0A0A0A0A0A0A0A65
:101730000F14191E23282D32322D28231E19140FA1
:101740000A0A0A0A0A0A0A0A0A0A0A0A0A0A0A0AF9
:101750000A0A0A0A0A0A0A0A0A0A0A0A0A0A0A0AE9
:101760000F14191E23282D320A0A0A0A0A0A0A0A25
:101770000F14191E23282D32322D28231E19140F61
:101780000A0A0A0A0A0A0A0A0A0A0A0A0A0A0A0AB9
:101790000A0A0A0A0A0A0A0A0A0A0A0A0A0A0A0AA9
:1017A0000F14191E23282D320A0A0A0A0A0A0A0AE5
:1017B0000F14191E23282D32322D28231E19140F21
:1017C0000A0A0A0A0A0A0A0A0A0A0A0A0A0A0A0A79
:1017D0000A0A0A0A0A0A0A0A0A0A0A0A0A0A0A0A69
:0817E0000F14191E23282D32FD
:00000001FF
